:040800000CEF04F005
:10080800FACF3EF0FBCF3FF0E9CF40F069ED06F0BC
:1008180056EF08F0004F4B0D0A0041542B43495046
:1008280053454E443D302C3232300D0A0041542B92
:1008380043574A41503D2274616C6B696E67686129
:100848006E64222C22746B313233343536220D0A11
:100858000041542B4349505345525645523D312C83
:10086800343030300D0A0041542B43574D4F444526
:100878003D310D0A0041542B4349504D55583D31E7
:100888000D0A0041542B43495053454E443D302CEA
:10089800006C696E6B206973206E6F740041542B75
:1008A8005253540D0A00414E315200524130570004
:1008B800524230570052413157005241325700528C
:1008C8004133570052423457005242355700524183
:1008D80037570050574D004F4B000000000E0001E5
:1008E800E86F000EE76F0001E85106E16E0E0001A7
:1008F800E75DD8B0DFD001D0DDD09C0E0001E56FF8
:10090800D70EE82EFED7E52FFCD700F0D9EC07F07C
:100918000C0E0001E7250001E56F000E0001E8213B
:100928000001E66F000E0001E525D96E010E0001F9
:10093800E621DA6E01C0DFFF0D0E0001E725000198
:10094800E56F000E0001E8210001E66F000E0001CE
:10095800E525D96E010E0001E621DA6E03C0DFFF3E
:100968000E0E0001E7250001E56F000E0001E821E9
:100978000001E66F000E0001E525D96E010E0001A9
:10098800E621DA6E05C0DFFF0F0E0001E725000142
:10099800E56F000E0001E8210001E66F000E00017E
:1009A800E525D96E010E0001E621DA6E07C0DFFFEA
:1009B800100E0001E7250001E56F000E0001E82197
:1009C8000001E66F000E0001E525D96E010E000159
:1009D800E621DA6E09C0DFFF110E0001E7250001EC
:1009E800E56F000E0001E8210001E66F000E00012E
:1009F800E525D96E010E0001E621DA6E0BC0DFFF96
:100A0800120E0001E7250001E56F000E0001E82144
:100A18000001E66F000E0001E525D96E010E000108
:100A2800E621DA6E0DC0DFFF130E0001E725000195
:100A3800E56F000E0001E8210001E66F000E0001DD
:100A4800E525D96E010E0001E621DA6E0FC0DFFF41
:100A5800140E0001E7250001E56F000E0001E821F2
:100A68000001E66F000E0001E525D96E010E0001B8
:100A7800E621DA6E11C0DFFF150E0001E72500013F
:100A8800E56F000E0001E8210001E66F000E00018D
:100A9800E525D96E010E0001E621DA6E13C0DFFFED
:100AA800160E0001E727000EE8230001E85102E1D5
:100AB8001DD700D0220E0001DF6F080E0001E06F85
:100AC80036EC07F0000E0001EA6F6E0EE96F0001C8
:100AD800EA5106E1DC0E0001E95DD8B0DFD001D0B3
:100AE800DDD09C0E0001E56FD70EE82EFED7E52F6E
:100AF800FCD700F0D9EC07F00C0E0001E925000145
:100B0800E56F000E0001EA210001E66F000E00010A
:100B1800E525D96E010E0001E621DA6E01C0DFFF7E
:100B28000D0E0001E9250001E56F000E0001EA2124
:100B38000001E66F000E0001E525D96E010E0001E7
:100B4800E621DA6E03C0DFFF0E0E0001E925000181
:100B5800E56F000E0001EA210001E66F000E0001BA
:100B6800E525D96E010E0001E621DA6E05C0DFFF2A
:100B78000F0E0001E9250001E56F000E0001EA21D2
:100B88000001E66F000E0001E525D96E010E000197
:100B9800E621DA6E07C0DFFF100E0001E92500012B
:100BA800E56F000E0001EA210001E66F000E00016A
:100BB800E525D96E010E0001E621DA6E09C0DFFFD6
:100BC800110E0001E9250001E56F000E0001EA2180
:100BD8000001E66F000E0001E525D96E010E000147
:100BE800E621DA6E0BC0DFFF120E0001E9250001D5
:100BF800E56F000E0001EA210001E66F000E00011A
:100C0800E525D96E010E0001E621DA6E0DC0DFFF81
:100C1800130E0001E9250001E56F000E0001EA212D
:100C28000001E66F000E0001E525D96E010E0001F6
:100C3800E621DA6E0FC0DFFF140E0001E92500017E
:100C4800E56F000E0001EA210001E66F000E0001C9
:100C5800E525D96E010E0001E621DA6E11C0DFFF2D
:100C6800150E0001E9250001E56F000E0001EA21DB
:100C78000001E66F000E0001E525D96E010E0001A6
:100C8800E621DA6E13C0DFFF160E0001E927000E19
:100C9800EA230001EA5102E11DD700D0000E00014D
:100CA800DB6F010E0001DC6F000E0001DE6FDC0E51
:100CB800DD6F1BEC09F0560E0001DF6F080E000116
:100CC800E06F36EC07F000D012000600EACF41F0E2
:100CD800E1CF42F0E2CF43F0D9CF44F0DACF45F08C
:100CE800F3CF46F0F4CF47F0F6CF48F0F7CF49F00E
:100CF800F8CF4AF0F5CF4BF0F2A406D0F29435C005
:100D0800D6FF1BEC08F000D09EAA8FD09E9A5F0EEB
:100D180057EC09F0D8A089D05F0EF1EC08F0310E3D
:100D28000001A919D8A404D0050E2026000E2122FE
:100D3800300E0001A919D8A404D0FB0E2026FF0EFE
:100D48002122330E0001A919D8A404D0050E2226A9
:100D5800000E2322320E0001A919D8A404D0FB0EDC
:100D68002226FF0E2322350E0001A919D8A404D08B
:100D7800050E2426000E2522340E0001A919D8A438
:100D880004D0FB0E2426FF0E2522370E0001A919D8
:100D9800D8A404D0050E2626000E2722360E000100
:100DA800A919D8A404D0FB0E2626FF0E2722740EFC
:100DB8000001A919D8A40DD0000E216E2068000EDC
:100DC800236E2268000E256E2468000E276E2668A2
:100DD80000D0670E0001A919D8A411D0000E216E09
:100DE800960E206E000E236E960E226E000E256E55
:100DF800960E246E000E276E960E266E00D0620E9A
:100E08000001A919D8A411D0000E216E010E206E80
:100E1800000E236E010E226E000E256E010E246E4A
:100E2800000E276E010E266E00D04BC0F5FF4AC09B
:100E3800F8FF49C0F7FF48C0F6FF47C0F4FF46C0B7
:100E4800F3FF45C0DAFF44C0D9FF43C0E2FF42C008
:100E5800E1FF41C0EAFF40C0E9FF3FC0FBFF3EC0E1
:100E6800FAFF1100000E0001E46FDFC04CF0E0C093
:100E78004DF090EC08F04C500001E36F44D00001B5
:100E8800E451010DDFC0E1F0E0C0E2F0F3500001F1
:100E9800E127F4500001E223E1C0F6FFE2C0F7FFCA
:100EA800F86A070EF76403D00800F55005D0F6CFAE
:100EB800E9FFF7CFEAFFEF500009D8B42AD00001C4
:100EC800E451010DDFC0E1F0E0C0E2F0F3500001B1
:100ED800E127F4500001E223E1C0F6FFE2C0F7FF8A
:100EE800F86A070EF76403D00800F55005D0F6CF6E
:100EF800E9FFF7CFEAFFEF509EEC09F00001E42B81
:100F080002D007D000D00001E3510001E45DD8A071
:100F1800B6D7E4C031F0326A1200A50E0001DF6FC7
:100F2800080E0001E06F36EC07F0000E4D6E020E61
:100F38004C6EC1EC08F06F0E0001DF6F080E000167
:100F4800E06F36EC07F0000E4D6E020E4C6EC1ECF1
:100F580008F0350E0001DF6F080E0001E06F36EC77
:100F680007F0000E4D6E080E4C6EC1EC08F07D0EB9
:100F78000001DF6F080E0001E06F36EC07F0000E8D
:100F88004D6E020E4C6EC1EC08F0590E0001DF6F79
:100F9800080E0001E06F36EC07F0000E4D6E020EF1
:100FA8004C6EC1EC08F000D01200C294C296C298F0
:100FB800C28200D0C2B2FED7C3CF01F0026AC4CF4A
:100FC80003F0046AC284C296C298C28200D0C2B238
:100FD800FED7C3CF05F0066AC4CF07F0086AC294EB
:100FE800C286C298C28200D0C2B2FED7C3CF09F06F
:100FF8000A6AC4CF0BF00C6AC284C286C298C28245
:1010080000D0C2B2FED7C3CF0DF00E6AC4CF0FF026
:10101800106AC294C296C288C28200D0C2B2FED7F9
:10102800C3CF11F0126AC4CF13F0146A12001F2A3A
:101038001F503A6E3B6A20503A1806E121503B187F
:10104800D8A402D0819400D01F503A6E3B6A225037
:101058003A1806E123503B18D8A402D0819600D054
:101068001F503A6E3B6A24503A1806E125503B1847
:10107800D8A402D0819800D01F503A6E3B6A2650FF
:101088003A1806E127503B18D8A402D0819A09D013
:101098001F50D8A406D0FC0E811203D0000E1F6E7C
:1010A80000D0120001EE00F0DC0EEE6AE806FDE169
:1010B80000EE60F07B0EEE6AE806FDE1396A386AF8
:1010C800376A00EE01F01F0EEE6AE806FDE1620ED7
:1010D800F66E130EF76E000EF86E00EEEBF010EEE3
:1010E8000DF00900F5CFEEFFE550E150FAE1240ECE
:1010F800F66E130EF76E000EF86E00EE20F010EE8E
:1011080017F00900F5CFEEFFE550E150FAE1000EC7
:10111800F86E000168EF09F04CC0DDF04DC0DEF05C
:1011280004D00001DD4BDE2B00D0DDC0F6FFDEC0B1
:10113800F7FFF86A070EF76403D00800F55005D0EA
:10114800F6CFE9FFF7CFEAFFEF500009D8A4E9D7B7
:101158004CC0DBF04DC0DCF00001DB1FDC1FDB4BBB
:10116800DC2B0001DD510001DB254C6E0001DE5156
:101178000001DC214D6E00D01200000E0001DD6F71
:10118800000EDC6F21D0000E0001DF6F000EDE6F55
:101198000001DF5115E1720E0001DE5DD8B010D0FC
:1011A80001D00ED09C0E0001DB6FD70EE82EFED7C3
:1011B800DB2FFCD700F00001DE4BDF2BE9D700D096
:1011C8000001DC4BDD2B00D04C500001DC5D4D50A4
:1011D8000001DD59D8A0D7D712003B6E000E3D6E36
:1011E800000E3C6E00D0A90E3C24D96E000E3D20A6
:1011F800DA6E85EC09F0DF6EA90E3C24D96E000E7C
:101208003D20DA6E3B50DE18D8A409D0A90E3C2444
:10121800D96E000E3D20DA6E000EDF6E03D03C4A18
:101228003D2AE1D73CC031F03DC032F01200000E3B
:101238000001E06F000EDF6F11D00001DF510001E7
:10124800DB25D96E0001E0510001DC21DA6EDF50A8
:101258009EEC09F00001DF4BE02B00D00001DD51CE
:101268000001DF5D0001DE510001E059D8A0E5D79B
:101278001200948E949C190EAF6E190EB06EAC9E2F
:10128800AC9CAC8AAC98AC96AC84AC92AC90AB8E6F
:10129800AB9CAB9AAB88AB96AB94AB92AB909D985A
:1012A8009D8A00D012003A6E9EBA02D00AD00BD0A6
:1012B80085EC09F03A18D8A404D03A28AE6ED88044
:1012C80002D0D89000D012003DEC09F0A8EC09F04B
:1012D80091EC07F077EC09F0399000D072EC04F04B
:1012E800FDD70CEF04F09268010EC26E000EC16EBD
:1012F800C186C194C182C190000EC06EC28000D068
:101308001200ABA203D0AB98AB8800D09EAAFED740
:10131800AECF1EF09E9AAE5000D012000100010020
:10132800010001000100300D0A000D0A0032000F13
:10133800006000004C6E00D09EA8FED74CC0ADFFE8
:101348009E9AAB9200D01200A00EF26EC10ED56E1E
:10135800030E936E35C0D6FF12004F4B0D0A0031B5
:081368000D0A00300D0A00001F
:020000040020DA
:08000000FFFFFFFFFFFFFFFF00
:020000040030CA
:0E000000240E1E1EFF8181FF0FC00FE00F4077
:00000001FF
